{
  "contractName": "ERC20Factory",
  "abi": [
    {
      "anonymous": false,
      "inputs": [
        {
          "indexed": false,
          "internalType": "address",
          "name": "contractAddress",
          "type": "address"
        }
      ],
      "name": "ContractCreated",
      "type": "event"
    },
    {
      "constant": true,
      "inputs": [
        {
          "internalType": "uint256",
          "name": "",
          "type": "uint256"
        }
      ],
      "name": "listOfERC20s",
      "outputs": [
        {
          "internalType": "address",
          "name": "",
          "type": "address"
        }
      ],
      "payable": false,
      "stateMutability": "view",
      "type": "function"
    },
    {
      "constant": false,
      "inputs": [
        {
          "internalType": "string",
          "name": "_name",
          "type": "string"
        },
        {
          "internalType": "string",
          "name": "_symbol",
          "type": "string"
        },
        {
          "internalType": "uint256",
          "name": "_initialSupply",
          "type": "uint256"
        }
      ],
      "name": "createChildContract",
      "outputs": [],
      "payable": false,
      "stateMutability": "nonpayable",
      "type": "function"
    },
    {
      "constant": true,
      "inputs": [],
      "name": "getDeployedChildContract",
      "outputs": [
        {
          "internalType": "address[]",
          "name": "",
          "type": "address[]"
        }
      ],
      "payable": false,
      "stateMutability": "view",
      "type": "function"
    }
  ],
  "bytecode": "0x608060405234801561001057600080fd5b506114aa806100206000396000f3fe608060405234801561001057600080fd5b50600436106100415760003560e01c80632684220614610046578063280500db146100a55780633be5e9d514610113575b600080fd5b61004e61026f565b6040518080602001828103825283818151815260200191508051906020019060200280838360005b83811015610091578082015181840152602081019050610076565b505050509050019250505060405180910390f35b6100d1600480360360208110156100bb57600080fd5b81019080803590602001909291905050506102fd565b604051808273ffffffffffffffffffffffffffffffffffffffff1673ffffffffffffffffffffffffffffffffffffffff16815260200191505060405180910390f35b61026d6004803603606081101561012957600080fd5b810190808035906020019064010000000081111561014657600080fd5b82018360208201111561015857600080fd5b8035906020019184600183028401116401000000008311171561017a57600080fd5b91908080601f016020809104026020016040519081016040528093929190818152602001838380828437600081840152601f19601f820116905080830192505050505050509192919290803590602001906401000000008111156101dd57600080fd5b8201836020820111156101ef57600080fd5b8035906020019184600183028401116401000000008311171561021157600080fd5b91908080601f016020809104026020016040519081016040528093929190818152602001838380828437600081840152601f19601f82011690508083019250505050505050919291929080359060200190929190505050610339565b005b606060008054806020026020016040519081016040528092919081815260200182805480156102f357602002820191906000526020600020905b8160009054906101000a900473ffffffffffffffffffffffffffffffffffffffff1673ffffffffffffffffffffffffffffffffffffffff16815260200190600101908083116102a9575b5050505050905090565b6000818154811061030a57fe5b906000526020600020016000915054906101000a900473ffffffffffffffffffffffffffffffffffffffff1681565b60008383833360405161034b9061054e565b8080602001806020018581526020018473ffffffffffffffffffffffffffffffffffffffff1673ffffffffffffffffffffffffffffffffffffffff168152602001838103835287818151815260200191508051906020019080838360005b838110156103c45780820151818401526020810190506103a9565b50505050905090810190601f1680156103f15780820380516001836020036101000a031916815260200191505b50838103825286818151815260200191508051906020019080838360005b8381101561042a57808201518184015260208101905061040f565b50505050905090810190601f1680156104575780820380516001836020036101000a031916815260200191505b509650505050505050604051809103906000f08015801561047c573d6000803e3d6000fd5b50905060008190806001815401808255809150509060018203906000526020600020016000909192909190916101000a81548173ffffffffffffffffffffffffffffffffffffffff021916908373ffffffffffffffffffffffffffffffffffffffff160217905550507fcf78cf0d6f3d8371e1075c69c492ab4ec5d8cf23a1a239b6a51a1d00be7ca31281604051808273ffffffffffffffffffffffffffffffffffffffff1673ffffffffffffffffffffffffffffffffffffffff16815260200191505060405180910390a150505050565b610f1a8061055c8339019056fe60806040526012600360006101000a81548160ff021916908360ff1602179055503480156200002d57600080fd5b5060405162000f1a38038062000f1a833981810160405260808110156200005357600080fd5b81019080805160405193929190846401000000008211156200007457600080fd5b838201915060208201858111156200008b57600080fd5b8251866001820283011164010000000082111715620000a957600080fd5b8083526020830192505050908051906020019080838360005b83811015620000df578082015181840152602081019050620000c2565b50505050905090810190601f1680156200010d5780820380516001836020036101000a031916815260200191505b50604052602001805160405193929190846401000000008211156200013157600080fd5b838201915060208201858111156200014857600080fd5b82518660018202830111640100000000821117156200016657600080fd5b8083526020830192505050908051906020019080838360005b838110156200019c5780820151818401526020810190506200017f565b50505050905090810190601f168015620001ca5780820380516001836020036101000a031916815260200191505b5060405260200180519060200190929190805190602001909291905050508360009080519060200190620002009291906200026f565b508260019080519060200190620002199291906200026f565b508160028190555081600460008373ffffffffffffffffffffffffffffffffffffffff1673ffffffffffffffffffffffffffffffffffffffff16815260200190815260200160002081905550505050506200031e565b828054600181600116156101000203166002900490600052602060002090601f016020900481019282601f10620002b257805160ff1916838001178555620002e3565b82800160010185558215620002e3579182015b82811115620002e2578251825591602001919060010190620002c5565b5b509050620002f29190620002f6565b5090565b6200031b91905b8082111562000317576000816000905550600101620002fd565b5090565b90565b610bec806200032e6000396000f3fe608060405234801561001057600080fd5b50600436106100935760003560e01c8063313ce56711610066578063313ce5671461022557806370a082311461024957806395d89b41146102a1578063a9059cbb14610324578063dd62ed3e1461038a57610093565b806306fdde0314610098578063095ea7b31461011b57806318160ddd1461018157806323b872dd1461019f575b600080fd5b6100a0610402565b6040518080602001828103825283818151815260200191508051906020019080838360005b838110156100e05780820151818401526020810190506100c5565b50505050905090810190601f16801561010d5780820380516001836020036101000a031916815260200191505b509250505060405180910390f35b6101676004803603604081101561013157600080fd5b81019080803573ffffffffffffffffffffffffffffffffffffffff169060200190929190803590602001909291905050506104a0565b604051808215151515815260200191505060405180910390f35b610189610592565b6040518082815260200191505060405180910390f35b61020b600480360360608110156101b557600080fd5b81019080803573ffffffffffffffffffffffffffffffffffffffff169060200190929190803573ffffffffffffffffffffffffffffffffffffffff16906020019092919080359060200190929190505050610598565b604051808215151515815260200191505060405180910390f35b61022d6108b8565b604051808260ff1660ff16815260200191505060405180910390f35b61028b6004803603602081101561025f57600080fd5b81019080803573ffffffffffffffffffffffffffffffffffffffff1690602001909291905050506108cb565b6040518082815260200191505060405180910390f35b6102a96108e3565b6040518080602001828103825283818151815260200191508051906020019080838360005b838110156102e95780820151818401526020810190506102ce565b50505050905090810190601f1680156103165780820380516001836020036101000a031916815260200191505b509250505060405180910390f35b6103706004803603604081101561033a57600080fd5b81019080803573ffffffffffffffffffffffffffffffffffffffff16906020019092919080359060200190929190505050610981565b604051808215151515815260200191505060405180910390f35b6103ec600480360360408110156103a057600080fd5b81019080803573ffffffffffffffffffffffffffffffffffffffff169060200190929190803573ffffffffffffffffffffffffffffffffffffffff169060200190929190505050610b24565b6040518082815260200191505060405180910390f35b60008054600181600116156101000203166002900480601f0160208091040260200160405190810160405280929190818152602001828054600181600116156101000203166002900480156104985780601f1061046d57610100808354040283529160200191610498565b820191906000526020600020905b81548152906001019060200180831161047b57829003601f168201915b505050505081565b600081600560003373ffffffffffffffffffffffffffffffffffffffff1673ffffffffffffffffffffffffffffffffffffffff16815260200190815260200160002060008573ffffffffffffffffffffffffffffffffffffffff1673ffffffffffffffffffffffffffffffffffffffff168152602001908152602001600020819055508273ffffffffffffffffffffffffffffffffffffffff163373ffffffffffffffffffffffffffffffffffffffff167f8c5be1e5ebec7d5bd14f71427d1e84f3dd0314c0f7b2291e5b200ac8c7c3b925846040518082815260200191505060405180910390a36001905092915050565b60025481565b6000600460008573ffffffffffffffffffffffffffffffffffffffff1673ffffffffffffffffffffffffffffffffffffffff16815260200190815260200160002054821115610632576040517f08c379a000000000000000000000000000000000000000000000000000000000815260040180806020018281038252603c815260200180610b4a603c913960400191505060405180910390fd5b600560008573ffffffffffffffffffffffffffffffffffffffff1673ffffffffffffffffffffffffffffffffffffffff16815260200190815260200160002060003373ffffffffffffffffffffffffffffffffffffffff1673ffffffffffffffffffffffffffffffffffffffff16815260200190815260200160002054821115610724576040517f08c379a000000000000000000000000000000000000000000000000000000000815260040180806020018281038252601c8152602001807f4e6f7420617574686f72697a6564206279207468652073656e6465720000000081525060200191505060405180910390fd5b81600460008673ffffffffffffffffffffffffffffffffffffffff1673ffffffffffffffffffffffffffffffffffffffff1681526020019081526020016000206000828254039250508190555081600460008573ffffffffffffffffffffffffffffffffffffffff1673ffffffffffffffffffffffffffffffffffffffff1681526020019081526020016000206000828254019250508190555081600560008673ffffffffffffffffffffffffffffffffffffffff1673ffffffffffffffffffffffffffffffffffffffff16815260200190815260200160002060003373ffffffffffffffffffffffffffffffffffffffff1673ffffffffffffffffffffffffffffffffffffffff168152602001908152602001600020600082825403925050819055508273ffffffffffffffffffffffffffffffffffffffff168473ffffffffffffffffffffffffffffffffffffffff167fddf252ad1be2c89b69c2b068fc378daa952ba7f163c4a11628f55a4df523b3ef846040518082815260200191505060405180910390a3600190509392505050565b600360009054906101000a900460ff1681565b60046020528060005260406000206000915090505481565b60018054600181600116156101000203166002900480601f0160208091040260200160405190810160405280929190818152602001828054600181600116156101000203166002900480156109795780601f1061094e57610100808354040283529160200191610979565b820191906000526020600020905b81548152906001019060200180831161095c57829003601f168201915b505050505081565b600081600460003373ffffffffffffffffffffffffffffffffffffffff1673ffffffffffffffffffffffffffffffffffffffff168152602001908152602001600020541015610a1b576040517f08c379a0000000000000000000000000000000000000000000000000000000008152600401808060200182810382526032815260200180610b866032913960400191505060405180910390fd5b81600460003373ffffffffffffffffffffffffffffffffffffffff1673ffffffffffffffffffffffffffffffffffffffff1681526020019081526020016000206000828254039250508190555081600460008573ffffffffffffffffffffffffffffffffffffffff1673ffffffffffffffffffffffffffffffffffffffff168152602001908152602001600020600082825401925050819055508273ffffffffffffffffffffffffffffffffffffffff163373ffffffffffffffffffffffffffffffffffffffff167fddf252ad1be2c89b69c2b068fc378daa952ba7f163c4a11628f55a4df523b3ef846040518082815260200191505060405180910390a36001905092915050565b600560205281600052604060002060205280600052604060002060009150915050548156fe5468652073656e64657220646f6573206e6f74206861766520656e6f7567682062616c616e636520666f722074686973207472616e73616374696f6e596f7520646f6e2774206861766520656e6f7567682062616c616e636520666f722074686973207472616e73616374696f6ea265627a7a723158201bcb24ca1570e5204c7c80f572ce4c8077dca3d44899481d23b9010c27915be264736f6c63430005100032a265627a7a7231582077bc3abad65db7c181f09a7bc433125ffc334457510913b58ce07ba4c8e90f3964736f6c63430005100032",
  "source": "// SPDX-License-Identifier: GPL-3.0\n\npragma solidity >=0.4.22 <0.9.0;\n\n\n/** \n * @title QuadVotingFactory Contract\n * @dev Contract for creating child contracts\n*/\ncontract ERC20Factory{\n    address [] public listOfERC20s;\n    \n    event ContractCreated(address contractAddress);\n    \n    /** \n    * @dev Function which creates child contracts\n    * @param _initialSupply No of initial tokens supplied by Factory Contract\n    * @param _symbol Ticker symbol for the token\n    * @param _name Name of the token\n    */\n    function createChildContract(string memory _name, string memory _symbol, uint256 _initialSupply) public{\n        address newContract = address(new ERC20(_name, _symbol, _initialSupply, msg.sender));\n        \n        listOfERC20s.push(newContract);\n        emit ContractCreated(newContract);\n    }\n    \n    /**\n    * @dev Function which returns all the created child contracts\n    * @return This returns the entire array of deployed contract addresses\n    */\n    function getDeployedChildContract() external view returns (address[] memory){\n        return listOfERC20s;\n    }\n}\n\n\n/*\n * @title QuadVoting Contract1\n * @dev Contains ERC-20 functions and functions to create and vote in polls\n*/\ncontract ERC20 {\n    \n    /////////////////// ERC20 related variables ///////////////////\n    string  public name;\n    string  public symbol;\n    uint256 public totalSupply;\n    uint8 public decimals = 18;\n\n    event Transfer(\n        address indexed _from,\n        address indexed _to,\n        uint256 _value\n    );\n\n    event Approval(\n        address indexed _owner,\n        address indexed _spender,\n        uint256 _value\n    );\n\n    mapping(address => uint256) public balanceOf;\n    mapping(address => mapping(address => uint256)) public allowance;\n    ////////////////////////////////////////////////////////////////\n    \n\n    /////////////////// constructor ////////////////////////////////\n    /**\n    @dev Set the initial supply and token per person\n    @param _initialSupply No of initial tokens supplied by Factory Contract\n    @param _symbol Ticker symbol for the token\n    @param _name Name of the token\n    */\n    constructor(string memory _name, string memory _symbol, uint256  _initialSupply, address _msgSender) public{\n        name = _name;\n        symbol = _symbol;\n        totalSupply = _initialSupply;\n        balanceOf[_msgSender] = _initialSupply;\n    }\n    /////////////////////////////////////////////////////////////\n    \n    \n    /////////////////// ERC20 related functions ////////////////\n    \n    /**\n    @dev Standard ERC-20 function to transfer tokens\n    @param _to Address to which to transfer\n    @param _value No of tokens to transfer\n     */\n    function transfer(address _to, uint256 _value) public returns (bool success) {\n        require(balanceOf[msg.sender] >= _value,\"You don't have enough balance for this transaction\");\n\n        balanceOf[msg.sender] -= _value;\n        balanceOf[_to] += _value;\n\n        emit Transfer(msg.sender, _to, _value);\n\n        return true;\n    }\n    \n    /**\n    @dev Additional function to transger from the contract to the approved address\n    @param _to Address to which to transfer tokens\n    @param _value No of tokens to be transferred\n    */\n    function transferFromContract(address _to, uint256 _value) private returns (bool success) {\n        require(balanceOf[address(this)] >= _value,\"Not enough balance for this transaction\");\n\n        balanceOf[address(this)] -= _value;\n        balanceOf[_to] += _value;\n\n        emit Transfer(address(this), _to, _value);\n\n        return true;\n    }\n\n    /**\n    @dev Standard ERC-20 function to approve spending by another address\n    @param _spender The address which the person approves the fund\n    @param _value No of tokens approved\n    */\n    function approve(address _spender, uint256 _value) public returns (bool success) {\n        allowance[msg.sender][_spender] = _value;\n\n        emit Approval(msg.sender, _spender, _value);\n\n        return true;\n    }\n\n    /**\n    @dev Standard ERC-20 function to spend tokens from approved addresses\n    @param _from The address of the sender\n    @param _to  The address of the receiver\n    @param _value No of tokens to be transferred\n    */\n    function transferFrom(address _from, address _to, uint256 _value) public returns (bool success) {\n        require(_value <= balanceOf[_from],\"The sender does not have enough balance for this transaction\");\n        require(_value <= allowance[_from][msg.sender],\"Not authorized by the sender\");\n\n        balanceOf[_from] -= _value;\n        balanceOf[_to] += _value;\n\n        allowance[_from][msg.sender] -= _value;\n\n        emit Transfer(_from, _to, _value);\n\n        return true;\n    }\n    ///////////////////////////////////////////////////////////////\n}\n",
  "sourcePath": "/home/puter/Projects/ERC20Factory/contracts/ERC20Factory.sol",
  "compiler": {
    "name": "solc",
    "version": "0.5.16+commit.9c3226ce.Emscripten.clang"
  },
  "schemaVersion": "3.3.3",
  "updatedAt": "2021-01-27T14:32:23.676Z",
  "networkType": "ethereum",
  "devdoc": {
    "details": "Contract for creating child contracts",
    "methods": {
      "createChildContract(string,string,uint256)": {
        "details": "Function which creates child contracts",
        "params": {
          "_initialSupply": "No of initial tokens supplied by Factory Contract",
          "_name": "Name of the token",
          "_symbol": "Ticker symbol for the token"
        }
      },
      "getDeployedChildContract()": {
        "details": "Function which returns all the created child contracts",
        "return": "This returns the entire array of deployed contract addresses"
      }
    },
    "title": "QuadVotingFactory Contract"
  },
  "userdoc": {
    "methods": {}
  }
}